:100000000EC01DC01CC01BC01AC019C018C017C02C
:1000100016C015C014C013C012C011C010C01124E6
:100020001FBECFE5D2E0DEBFCDBF20E0A0E6B0E04E
:1000300001C01D92A236B207E1F78FD1E0C1E0CF37
:1000400082E58ABD81E083BF83B7806483BF87E098
:1000500087BB08956EE070E0B5D1019718F00000FD
:100060000000FBCF089580916000909161006DECDD
:100070007DE0A8D101969093610080936000892F64
:100080000895E82FF62F861718F4862F8E1B01C0CF
:10009000861B642FA8D1811101C081E02E2F30E092
:1000A000322F222792E59ABD4F2F50E0542F44273C
:1000B00090E0EF1750F42417350720F4280F391F6C
:1000C00039BDF9CF82E08ABD089542175307D0F7B2
:1000D000281B390B39BDF9CFEF92FF920F931F9375
:1000E000CF93DF93C0DFC82FC295C695C770CB5F93
:1000F000BADFE82EE2947FE0E722B5DF082F029511
:100100000F700F5FB0DF182F129516951770ABDFC9
:10011000D82FD295D695D695D370DF5FEAE0FE2E24
:10012000F10EF694175F1F3F61F04D2F6C2F600F9B
:100130008C2F8E0DA6DF1F1510F4CF5FDF5F1150DF
:10014000F2CFDF91CF911F910F91FF90EF90089523
:100150000F931F93CF93DF9386DF182F1295169579
:1001600016951370115F7FDF829586958770012F3A
:10017000081B055078DFC82F76DFD82FD295D6958B
:10018000D695D37070DF8295869587704FE06DE0CD
:100190008E5F77DF49E161E186E173DF82E390E022
:1001A00059DFC295C695C770CD0FCB5FDC1731F014
:1001B000DF5F4D2F602F812F64DFF8CF54DF90E099
:1001C000DF91CF911F910F9145CF1F93CF93DF9375
:1001D0004ADF182F12951695169513701E5F43DF90
:1001E000D82FD295DF70D55F3EDFC82FC295CF7074
:1001F000CB5FCD0F1123A1F036DF87FF04C045E0B0
:100200006C2F8D2F03C046E06D2F8C2F3ADF2BDF34
:1002100090E0880F991F880F991F1CDF1150EACFBB
:10022000DF91CF911F910895EF92FF920F931F934B
:10023000CF93DF9318DFD82FD295D695D77003E0F0
:100240000D0F11DFE82EE294AFE0EA220CDFF82E6A
:10025000F294BFE0FB22F39406DF182F04DF8295AF
:100260008F701295169517701D0F1C5FC82FD0E068
:10027000011771F0F8DE482F4295469547704E5FA2
:100280006F2D802F8E0DFDDECE01E4DE0F5FF0CFEF
:10029000DF91CF911F910F91FF90EF9008950F93F1
:1002A0001F93CF93DF931F92CDB7DEB7DCDE182FFD
:1002B000169516951695165FD6DE082F02950F70C7
:1002C000085F4CE0612F8EE1DCDE002399F0CBDE8D
:1002D000682F62956F70610F6983C5DE82958F709C
:1002E00041E06981810FCDDE1150123008F414E134
:1002F0000150EBCF4FE06EE1812FC3DEB4DE182F4B
:1003000012951695169513701E5F112359F043E050
:1003100063E08EE1B6DEA7DE8695869590E09ADEF4
:100320001150F3CFA0DE90E095DE9DDE182F1295E0
:100330001695169513701E5F112349F043E063E094
:100340008EE19FDE90DE90E085DE1150F5CF0F90BC
:10035000DF91CF911F910F91089572DE82E08ABDE7
:1003600080ED90E077DEC0ED7EDE82958F7082308A
:1003700010F4B2DEF9CF823011F427DFF5CF8430EC
:1003800011F4E6DEF1CF9BEF980F923018F44CDFBA
:1003900086DFEACF8E50823088F4CF5F64DE90E053
:1003A00024E0880F991F2A95E1F754DE8C2F90E006
:1003B00034E0880F991F3A95E1F702C054DE90E0CF
:1003C00049DED2CF0024552704C0080E591F880FDC
:1003D000991F009729F076956795B8F37105B9F7DD
:1003E000802D952F0895991B79E004C0991F9617C9
:1003F00008F0961B881F7A95C9F780950895F894A0
:02040000FFCF2C
:00000001FF
