:100000008EC4A8C4A7C41EC5A5C4A4C4A3C4A2C446
:10001000A1C4A0C49FC49EC49DC49CC49BC400032F
:1000200006090C0F1215181B1E2124272A2D303308
:1000300036393B3E414346494B4E50525557595B2A
:100040005E6062646667696B6C6E707172747576FF
:100050007778797A7B7B7C7D7D7E7E7E7E7E7F7EDF
:100060007E7E7E7E7D7D7C7B7B7A797877767574EB
:100070007271706E6C6B6967666462605E5B595723
:100080005552504E4B494643413E3B393633302D55
:100090002A2724211E1B1815120F0C09060300FD28
:1000A000FAF7F4F1EEEBE8E5E2DFDCD9D6D3D0CD18
:1000B000CAC7C5C2BFBDBAB7B5B2B0AEABA9A7A5D6
:1000C000A2A09E9C9A9997959492908F8E8C8B8AE1
:1000D00089888786858584838382828282828182E1
:1000E000828282828383848585868788898A8B8CB5
:1000F0008E8F9092949597999A9C9EA0A2A5A7A95D
:10010000ABAEB0B2B5B7BABDBFC2C5C7CACDD0D30A
:10011000D6D9DCDFE2E5E8EBEEF1F4F7FAFD00001A
:100120000000000000007E8195B1B195817E7EFFC8
:10013000EBCFCFEBFF7E0E1F3F7E3F1F0E00081C54
:100140003E7F3E1C080018BAFFFFFFBA180010B827
:10015000FCFFFCB810000000183C3C180000FFFF3A
:10016000E7C3C3E7FFFF003C664242663C00FFC3B3
:1001700099BDBD99C3FF70F88888FD7F070F004EB9
:100180005FF1F15F4E00C0E0FF7F05050707C0FF8C
:100190007F0505657F3F995A3CE7E73C5A997F3ECA
:1001A0003E1C1C08080008081C1C3E3E7F00002462
:1001B00066FFFF662400005F5F00005F5F00060FC0
:1001C000097F7F017F7F40DABFA5FD5903020070E0
:1001D0007070707070008094B6FFFFB69480000459
:1001E000067F7F0604000010307F7F301000080873
:1001F000082A3E1C0800081C3E2A080808003C3C4F
:10020000202020202000081C3E08083E1C08303812
:100210003C3E3E3C3830060E1E3E3E1E0E060000A2
:1002200000000000000000065F5F060000000007FD
:10023000070007070000147F7F147F7F1400242E1F
:100240006B6B3A120000466630180C666200307A1A
:100250004F5D377A48000407030000000000001CCF
:100260003E63410000000041633E1C000000082A7C
:100270003E1C1C3E2A0808083E3E0808000000807C
:10028000E0600000000008080808080800000000FE
:100290006060000000006030180C060301003E7F23
:1002A00071594D7F3E0040427F7F404000006273A5
:1002B00059496F660000226349497F360000181CC7
:1002C00016537F7F5000276745457D3900003C7EEF
:1002D0004B4979300000030371790F070000367F26
:1002E00049497F360000064F49693F1E0000000063
:1002F0006666000000000080E66600000000081C42
:1003000036634100000024242424242400000041FA
:1003100063361C080000020351590F0600003E7F9F
:10032000415D5D1F1E007C7E13137E7C0000417FBB
:100330007F49497F36001C3E634141632200417F73
:100340007F41633E1C00417F7F495D416300417FE7
:100350007F491D0103001C3E6341517372007F7F82
:1003600008087F7F000000417F7F4100000030705F
:1003700040417F3F0100417F7F081C776300417F40
:100380007F41406070007F7F0E1C0E7F7F007F7F6B
:10039000060C187F7F001C3E6341633E1C00417FBA
:1003A0007F49090F06001E3F21717F5E0000417FDB
:1003B0007F09197F6600266F4D5973320000034193
:1003C0007F7F410300007F7F40407F7F00001F3F11
:1003D00060603F1F00007F7F3018307F7F004367E1
:1003E0003C183C674300074F78784F07000047638D
:1003F00071594D677300007F7F4141000000010388
:10040000060C183060000041417F7F000000080C9E
:100410000603060C080080808080808080800000B9
:10042000030704000000207454543C784000417FCE
:100430003F4848783000387C44446C2800003078CD
:1004400048493F7F4000387C54545C180000487E87
:100450007F490302000098BCA4A4F87C0400417FFB
:100460007F08047C780000447D7D4000000060E04F
:100470008080FD7D0000417F7F10386C440000418A
:100480007F7F400000007C7C18381C7C78007C7CDE
:1004900004047C780000387C44447C38000084FCF0
:1004A000F8A4243C1800183C24A4F8FC8400447CE4
:1004B000784C041C1800485C545474240000000458
:1004C0003E7F442400003C7C40403C7C40001C3C7F
:1004D00060603C1C00003C7C7038707C3C00446CCC
:1004E0003810386C44009CBCA0A0FC7C00004C641C
:1004F000745C4C64000008083E7741410000000035
:100500000077770000004141773E080800000203B1
:1005100001030203010070784C464C7870000E9F76
:1005200091B1FB4A00003A7A40407A7A4000387C28
:1005300054555D19000002237555557D7B42217588
:1005400054547D794000217555547C7840002074C6
:1005500057577C784000183CA4A4E4400000023BBC
:100560007D55555D1B02397D54545D190000397D60
:1005700055545C18000001457C7C410100000203D9
:10058000457D7D43020001457D7C40000000797D72
:100590001612167D790070782B2B78700000447C41
:1005A0007C5555450000207454547C7C54547C7E0A
:1005B0000B097F7F4900327B49497B320000327A48
:1005C00048487A320000327A4A48783000003A7B54
:1005D00041417B7A40003A7A4240787840009ABAAA
:1005E000A0A0FA7A000001193C66663C19013D7D25
:1005F00040407D3D0000183C24E7E7242400687E4D
:100600007F49436620002B2FFCFC2F2B0000FFFFAF
:1006100009092FF6F8A040C088FE7F090302207464
:1006200054557D79400000447D7D410000003078C4
:10063000484A7A320000387840427A7A40007A7A22
:100640000A0A7A7000007D7D19317D7D0000002648
:100650002F292F2F280000262F292F260000307841
:100660004D456020000038380808080800000808D8
:100670000808383800004F6F3018CCEEBB914F6F30
:1006800030186C76FBF90000007B7B000000081C32
:100690003622081C362222361C0822361C08AA00E4
:1006A0005500AA005500AA55AA55AA55AA55DDFF1E
:1006B000AA77DDAAFF77000000FFFF0000001010FE
:1006C00010FFFF000000141414FFFF0000001010C2
:1006D000FFFF00FFFF001010F0F010F0F000141406
:1006E00014FCFC0000001414F7F700FFFF000000EA
:1006F000FFFF00FFFF001414F4F404FCFC001414CA
:100700001717101F1F0010101F1F101F1F00141499
:10071000141F1F000000101010F0F0000000000077
:10072000001F1F1010101010101F1F10101010109D
:1007300010F0F0101010000000FFFF10101010104B
:10074000101010101010101010FFFF1010100000EB
:1007500000FFFF1414140000FFFF00FFFF10000053
:100760001F1F101717140000FCFC04F4F4141414D9
:100770001717101717141414F4F404F4F4140000E9
:10078000FFFF00F7F71414141414141414141414A1
:10079000F7F700F7F71414141417171414141010A3
:1007A0001F1F101F1F10141414F4F414141410102D
:1007B000F0F010F0F01000001F1F101F1F100000BD
:1007C000001F1F141414000000FCFC14141400007B
:1007D000F0F010F0F0101010FFFF10FFFF101414D5
:1007E00014FFFF1414141010101F1F00000000004D
:1007F00000F0F0101010FFFFFFFFFFFFFFFFF0F011
:10080000F0F0F0F0F0F0FFFFFFFF0000000000004C
:100810000000FFFFFFFF0F0F0F0F0F0F0F0F387CB0
:10082000446C386C4400FCFE2A2A3E1400007E7E94
:10083000020206060000027E7E027E7E02006377D0
:100840005D4963630000387C447C3C04040080FE06
:100850007E20203E1E000406027E7C06020099BD1A
:10086000E7E7BD9900001C3E6B496B3E1C004C7EC7
:100870007301737E4C0030784A4F7D390000183C7C
:10088000243C3C243C1898FC643C3E273D181C3E0C
:100890006B49490000007E7F01017F7E00002A2A0B
:1008A0002A2A2A2A000044445F5F44440000405141
:1008B0005B4E4440000040444E5B5140000000004D
:1008C00000FEFF01070660E080FF7F0000000808CF
:1008D0006B6B08080000243612362436120000061E
:1008E0000F090F06000000000018180000000000AB
:1008F000001010000000103070C0FFFF0101001F49
:100900001F011F1E000000191D171200000000002B
:100910003C3C3C3C000000000000000000001124B2
:100920001FBECFE5D2E0DEBFCDBF10E0A0E6B0E055
:10093000EAEBFBE002C005900D92A837B107D9F7AA
:1009400020E0A8E7B0E001C01D92A93FB207E1F79F
:100950002FD131C155CBCF92DF92EF92FF920F93FF
:100960001F93CF93DF93CDB7DEB760970FB6F894A0
:10097000DEBF0FBECDBFFE01399698E0DF011D92AC
:100980009A95E9F7DE011196FD0198E120E030E04B
:10099000682F70E0AB01022E02C0559547950A946E
:1009A000E2F740FF02C0908301C010822F5F3F4FEB
:1009B000925031962830310569F7F89400E010E044
:1009C000BE016F5E7F4FCA2EDB2EE12CF12C23C0BF
:1009D0008C91E82FF0E0E25EFF4FE4912E0F311D85
:1009E000E7FD3A95FA019191AF01890F8D93A61712
:1009F000B70771F73595279535952795359527953F
:100A000020583F4FF801E758FF4F20830F5F1F4FDB
:100A10000038110539F0DE0119964C2D5D2D2E2D73
:100A20003F2DD6CF789460960FB6F894DEBF0FBEF8
:100A3000CDBFDF91CF911F910F91FF90EF90DF908D
:100A4000CF9008951F920F920FB60F9211248F939B
:100A5000EF93FF93809178008F5F8093780080916F
:100A600078008F7780937800E09178000E2E000C4C
:100A7000FF0BE758FF4F80818EBDFF91EF918F9163
:100A80000F900FBE0F901F901895CF92DF92EF92AC
:100A9000FF926B017C01672B682B692BA9F040E06A
:100AA00050E0BA012091780080917800821B8F7706
:100AB00090E04097CCF34F5F5F4F6F4F7F4F4C15E7
:100AC0005D056E057F0571F7FF90EF90DF90CF9089
:100AD00008950F931F93CF93DF93082F10E0E80141
:100AE000CC0FDD1FCC0FDD1FCC0FDD1FC25EDE4F34
:100AF000000F111F000F111F000F111F0A5D1E4F65
:100B0000FE01849128DF64E670E080E090E0BDDFC4
:100B10002196C017D107A1F780E01DDF68EC70E0D7
:100B200080E090E0B2DFDF91CF911F910F910895A7
:100B3000CF93DF93EC018881882329F02196C9DFC8
:100B400089918111FCCFDF91CF910895F89487B5F9
:100B5000826087BD87B5846087BD80B7887F80BF8E
:100B600080B7846080BF80B78F7E80BF80B780628F
:100B700080BF80B7806480BF89B7806489BF80E808
:100B80008EBDB99A78940895CF9380E690E0D0DF37
:100B9000C0E08C2FE0DE64E670E080E090E075DF7E
:100BA000CF5FCF3FB1F78CE690E0C2DFCF910895E1
:0A0BB000CDDFEADFFECFF894FFCF9F
:100BBA004D6F746F72626F65726420004368726968
:080BCA00734D6963726F200096
:00000001FF
